{
  "contractName": "CryptoRSVP",
  "abi": [
    {
      "inputs": [],
      "stateMutability": "nonpayable",
      "type": "constructor"
    },
    {
      "inputs": [
        {
          "internalType": "uint256",
          "name": "",
          "type": "uint256"
        }
      ],
      "name": "events",
      "outputs": [
        {
          "internalType": "uint256",
          "name": "id",
          "type": "uint256"
        },
        {
          "internalType": "string",
          "name": "name",
          "type": "string"
        },
        {
          "internalType": "uint256",
          "name": "seats",
          "type": "uint256"
        },
        {
          "internalType": "uint256",
          "name": "startTime",
          "type": "uint256"
        },
        {
          "internalType": "uint256",
          "name": "endTime",
          "type": "uint256"
        },
        {
          "internalType": "bool",
          "name": "closed",
          "type": "bool"
        },
        {
          "internalType": "bool",
          "name": "cancelled",
          "type": "bool"
        }
      ],
      "stateMutability": "view",
      "type": "function"
    },
    {
      "inputs": [],
      "name": "nEvents",
      "outputs": [
        {
          "internalType": "uint256",
          "name": "",
          "type": "uint256"
        }
      ],
      "stateMutability": "view",
      "type": "function"
    },
    {
      "inputs": [
        {
          "internalType": "address",
          "name": "",
          "type": "address"
        }
      ],
      "name": "users",
      "outputs": [
        {
          "internalType": "string",
          "name": "name",
          "type": "string"
        },
        {
          "internalType": "string",
          "name": "avatarUrl",
          "type": "string"
        }
      ],
      "stateMutability": "view",
      "type": "function"
    },
    {
      "inputs": [],
      "name": "getOwner",
      "outputs": [
        {
          "internalType": "address",
          "name": "",
          "type": "address"
        }
      ],
      "stateMutability": "view",
      "type": "function"
    },
    {
      "inputs": [
        {
          "internalType": "string",
          "name": "_name",
          "type": "string"
        },
        {
          "internalType": "string",
          "name": "_avatarUrl",
          "type": "string"
        }
      ],
      "name": "updateUserProfile",
      "outputs": [],
      "stateMutability": "nonpayable",
      "type": "function"
    },
    {
      "inputs": [
        {
          "internalType": "string",
          "name": "_name",
          "type": "string"
        },
        {
          "internalType": "uint256",
          "name": "_seats",
          "type": "uint256"
        },
        {
          "internalType": "uint256",
          "name": "_startTime",
          "type": "uint256"
        },
        {
          "internalType": "uint256",
          "name": "_endTime",
          "type": "uint256"
        }
      ],
      "name": "createEvent",
      "outputs": [
        {
          "internalType": "uint256",
          "name": "",
          "type": "uint256"
        }
      ],
      "stateMutability": "nonpayable",
      "type": "function"
    },
    {
      "inputs": [
        {
          "internalType": "uint256",
          "name": "_eventId",
          "type": "uint256"
        }
      ],
      "name": "closeOutEvent",
      "outputs": [],
      "stateMutability": "nonpayable",
      "type": "function"
    },
    {
      "inputs": [
        {
          "internalType": "uint256",
          "name": "_eventId",
          "type": "uint256"
        }
      ],
      "name": "cancelEvent",
      "outputs": [],
      "stateMutability": "nonpayable",
      "type": "function"
    },
    {
      "inputs": [
        {
          "internalType": "uint256",
          "name": "_eventId",
          "type": "uint256"
        },
        {
          "internalType": "address",
          "name": "_participant",
          "type": "address"
        }
      ],
      "name": "checkInEventParticipant",
      "outputs": [],
      "stateMutability": "nonpayable",
      "type": "function"
    },
    {
      "inputs": [
        {
          "internalType": "uint256",
          "name": "_eventId",
          "type": "uint256"
        }
      ],
      "name": "getEventParticipants",
      "outputs": [],
      "stateMutability": "nonpayable",
      "type": "function"
    }
  ],
  "bytecode": "0x608060405234801561001057600080fd5b50336000806101000a81548173ffffffffffffffffffffffffffffffffffffffff021916908373ffffffffffffffffffffffffffffffffffffffff1602179055506000600381905550610e9b806100686000396000f3fe608060405234801561001057600080fd5b506004361061009e5760003560e01c8063893d20e811610066578063893d20e81461015d578063a87430ba1461017b578063b50e0182146101ac578063bca321e5146101c8578063eb913287146101e65761009e565b80630374ab0b146100a35780630b791430146100d3578063193616d3146101095780633f69babd1461012557806340e0697914610141575b600080fd5b6100bd60048036038101906100b891906109f5565b610202565b6040516100ca9190610a87565b60405180910390f35b6100ed60048036038101906100e89190610aa2565b610325565b6040516101009796959493929190610b72565b60405180910390f35b610123600480360381019061011e9190610aa2565b610409565b005b61013f600480360381019061013a9190610aa2565b61040c565b005b61015b60048036038101906101569190610be8565b61046d565b005b610165610528565b6040516101729190610ca1565b60405180910390f35b61019560048036038101906101909190610ce8565b610551565b6040516101a3929190610d15565b60405180910390f35b6101c660048036038101906101c19190610aa2565b610685565b005b6101d0610688565b6040516101dd9190610a87565b60405180910390f35b61020060048036038101906101fb9190610d4c565b61068e565b005b6000806003600081548092919061021890610dbb565b91905055905060606040518061010001604052808381526020018881526020018781526020018681526020018581526020016000151581526020016000151581526020018281525060026000848152602001908152602001600020600082015181600001556020820151816001019080519060200190610299929190610692565b5060408201518160020155606082015181600301556080820151816004015560a08201518160050160006101000a81548160ff02191690831515021790555060c08201518160050160016101000a81548160ff02191690831515021790555060e0820151816006019080519060200190610314929190610718565b509050508192505050949350505050565b600260205280600052604060002060009150905080600001549080600101805461034e90610e33565b80601f016020809104026020016040519081016040528092919081815260200182805461037a90610e33565b80156103c75780601f1061039c576101008083540402835291602001916103c7565b820191906000526020600020905b8154815290600101906020018083116103aa57829003601f168201915b5050505050908060020154908060030154908060040154908060050160009054906101000a900460ff16908060050160019054906101000a900460ff16905087565b50565b60016002600083815260200190815260200160002060050160006101000a81548160ff02191690831515021790555060016002600083815260200190815260200160002060050160016101000a81548160ff02191690831515021790555050565b6060604051806060016040528084815260200183815260200182815250600160003373ffffffffffffffffffffffffffffffffffffffff1673ffffffffffffffffffffffffffffffffffffffff16815260200190815260200160002060008201518160000190805190602001906104e5929190610692565b506020820151816001019080519060200190610502929190610692565b50604082015181600201908051906020019061051f9291906107a2565b50905050505050565b60008060009054906101000a900473ffffffffffffffffffffffffffffffffffffffff16905090565b600160205280600052604060002060009150905080600001805461057490610e33565b80601f01602080910402602001604051908101604052809291908181526020018280546105a090610e33565b80156105ed5780601f106105c2576101008083540402835291602001916105ed565b820191906000526020600020905b8154815290600101906020018083116105d057829003601f168201915b50505050509080600101805461060290610e33565b80601f016020809104026020016040519081016040528092919081815260200182805461062e90610e33565b801561067b5780601f106106505761010080835404028352916020019161067b565b820191906000526020600020905b81548152906001019060200180831161065e57829003601f168201915b5050505050905082565b50565b60035481565b5050565b82805461069e90610e33565b90600052602060002090601f0160209004810192826106c05760008555610707565b82601f106106d957805160ff1916838001178555610707565b82800160010185558215610707579182015b828111156107065782518255916020019190600101906106eb565b5b5090506107149190610848565b5090565b828054828255906000526020600020908101928215610791579160200282015b828111156107905782518260006101000a81548173ffffffffffffffffffffffffffffffffffffffff021916908373ffffffffffffffffffffffffffffffffffffffff16021790555091602001919060010190610738565b5b50905061079e9190610848565b5090565b82805482825590600052602060002090601f016020900481019282156108375791602002820160005b8382111561080857835183826101000a81548160ff02191690831515021790555092602001926001016020816000010492830192600103026107cb565b80156108355782816101000a81549060ff0219169055600101602081600001049283019260010302610808565b505b5090506108449190610848565b5090565b5b80821115610861576000816000905550600101610849565b5090565b6000604051905090565b600080fd5b600080fd5b600080fd5b600080fd5b6000601f19601f8301169050919050565b7f4e487b7100000000000000000000000000000000000000000000000000000000600052604160045260246000fd5b6108cc82610883565b810181811067ffffffffffffffff821117156108eb576108ea610894565b5b80604052505050565b60006108fe610865565b905061090a82826108c3565b919050565b600067ffffffffffffffff82111561092a57610929610894565b5b61093382610883565b9050602081019050919050565b82818337600083830152505050565b600061096261095d8461090f565b6108f4565b90508281526020810184848401111561097e5761097d61087e565b5b610989848285610940565b509392505050565b600082601f8301126109a6576109a5610879565b5b81356109b684826020860161094f565b91505092915050565b6000819050919050565b6109d2816109bf565b81146109dd57600080fd5b50565b6000813590506109ef816109c9565b92915050565b60008060008060808587031215610a0f57610a0e61086f565b5b600085013567ffffffffffffffff811115610a2d57610a2c610874565b5b610a3987828801610991565b9450506020610a4a878288016109e0565b9350506040610a5b878288016109e0565b9250506060610a6c878288016109e0565b91505092959194509250565b610a81816109bf565b82525050565b6000602082019050610a9c6000830184610a78565b92915050565b600060208284031215610ab857610ab761086f565b5b6000610ac6848285016109e0565b91505092915050565b600081519050919050565b600082825260208201905092915050565b60005b83811015610b09578082015181840152602081019050610aee565b83811115610b18576000848401525b50505050565b6000610b2982610acf565b610b338185610ada565b9350610b43818560208601610aeb565b610b4c81610883565b840191505092915050565b60008115159050919050565b610b6c81610b57565b82525050565b600060e082019050610b87600083018a610a78565b8181036020830152610b998189610b1e565b9050610ba86040830188610a78565b610bb56060830187610a78565b610bc26080830186610a78565b610bcf60a0830185610b63565b610bdc60c0830184610b63565b98975050505050505050565b60008060408385031215610bff57610bfe61086f565b5b600083013567ffffffffffffffff811115610c1d57610c1c610874565b5b610c2985828601610991565b925050602083013567ffffffffffffffff811115610c4a57610c49610874565b5b610c5685828601610991565b9150509250929050565b600073ffffffffffffffffffffffffffffffffffffffff82169050919050565b6000610c8b82610c60565b9050919050565b610c9b81610c80565b82525050565b6000602082019050610cb66000830184610c92565b92915050565b610cc581610c80565b8114610cd057600080fd5b50565b600081359050610ce281610cbc565b92915050565b600060208284031215610cfe57610cfd61086f565b5b6000610d0c84828501610cd3565b91505092915050565b60006040820190508181036000830152610d2f8185610b1e565b90508181036020830152610d438184610b1e565b90509392505050565b60008060408385031215610d6357610d6261086f565b5b6000610d71858286016109e0565b9250506020610d8285828601610cd3565b9150509250929050565b7f4e487b7100000000000000000000000000000000000000000000000000000000600052601160045260246000fd5b6000610dc6826109bf565b91507fffffffffffffffffffffffffffffffffffffffffffffffffffffffffffffffff821415610df957610df8610d8c565b5b600182019050919050565b7f4e487b7100000000000000000000000000000000000000000000000000000000600052602260045260246000fd5b60006002820490506001821680610e4b57607f821691505b60208210811415610e5f57610e5e610e04565b5b5091905056fea26469706673582212206642afe156f4dec3c8fd58b6320b68d95a0ed961f10f20b7f185bf6b070d700664736f6c63430008090033",
  "immutableReferences": {},
  "source": "pragma solidity ^0.8.9;\npragma experimental ABIEncoderV2;\n\ncontract CryptoRSVP {\n    struct User {\n        string name;\n        string avatarUrl;\n        bool[] events;\n    }\n\n    struct Event {\n        uint256 id;\n        string name;\n        uint256 seats;\n        uint256 startTime;\n        uint256 endTime;\n        bool closed;\n        bool cancelled;\n        address[] participants;\n    }\n\n    address private owner;\n\n    mapping(address => User) public users;\n    mapping(uint256 => Event) public events;\n    uint256 public nEvents;\n\n    constructor() {\n        owner = msg.sender;\n        nEvents = 0;\n    }\n\n    function getOwner() public view returns (address) {\n        return owner;\n    }\n\n    function updateUserProfile(string memory _name, string memory _avatarUrl)\n        public\n    {\n        bool[] memory _events;\n        users[msg.sender] = User(_name, _avatarUrl, _events);\n    }\n\n    function createEvent(\n        string memory _name,\n        uint256 _seats,\n        uint256 _startTime,\n        uint256 _endTime\n    ) public returns (uint256) {\n        uint256 _eventId = nEvents++;\n        address[] memory _participants;\n\n        events[_eventId] = Event(\n            _eventId,\n            _name,\n            _seats,\n            _startTime,\n            _endTime,\n            false,\n            false,\n            _participants\n        );\n\n        return _eventId;\n    }\n\n    function closeOutEvent(uint256 _eventId) public {\n        // set event status to closed\n        // distribute non-attendants' staked value to the attending participants\n    }\n\n    function cancelEvent(uint256 _eventId) public {\n        events[_eventId].closed = true;\n        events[_eventId].cancelled = true;\n\n        // return staked values to participants\n    }\n\n    function checkInEventParticipant(uint256 _eventId, address _participant)\n        public\n    {\n        // ...\n    }\n\n    function getEventParticipants(uint256 _eventId) public {\n        // ...\n    }\n}\n",
  "sourcePath": "/Users/karliwson.sousa/Documents/AC_Projects/TechWeek/crypto-rsvp/contracts/CryptoRSVP.sol",
  "compiler": {
    "name": "solc",
    "version": "0.8.9+commit.e5eed63a.Emscripten.clang"
  },
  "schemaVersion": "3.4.3",
  "updatedAt": "2022-02-07T04:14:14.438Z",
  "devdoc": {
    "kind": "dev",
    "methods": {},
    "version": 1
  },
  "userdoc": {
    "kind": "user",
    "methods": {},
    "version": 1
  }
}